:020000040800F2
:1000000000500020BD240008B5150008BD150008EB
:10001000BF150008C1150008C31500080000000046
:10002000000000000000000000000000C5150008EE
:10003000C715000800000000C9150008CB1500080E
:1000400005250008052500080525000805250008E8
:1000500005250008052500080525000805250008D8
:1000600005250008052500080525000805250008C8
:100070000525000805250008D1150008DD15000834
:1000800005250008052500080525000805250008A8
:10009000E9150008052500080525000805250008C4
:1000A0000525000805250008052500080525000888
:1000B0000525000805250008052500080525000878
:1000C0000525000805250008052500080525000868
:1000D00005250008F5150008052500080525000878
:1000E000052500080525000805250008000000007A
:1000F0000000000000000000000000000000000000
:0C01000000000000000000005FF808F1A3
:1001100010B5054C237833B9044B13B10448AFF341
:1001200000800123237010BD580300200000000050
:100130001C89000808B5034B1BB103490348AFF302
:10014000008008BD000000005C0300201C8900083E
:10015000034613F8012B002AFBD1181A0138704707
:1001600081F0004102E000BF83F0004330B54FEA68
:1001700041044FEA430594EA050F08BF90EA020FD5
:100180001FBF54EA000C55EA020C7FEA645C7FEA68
:10019000655C00F0E2804FEA5454D4EB5555B8BF8B
:1001A0006D420CDD2C4480EA020281EA030382EAFC
:1001B000000083EA010180EA020281EA0303362D8E
:1001C00088BF30BD11F0004F4FEA01314FF4801C61
:1001D0004CEA113102D0404261EB410113F0004F73
:1001E0004FEA03334CEA133302D0524263EB43032A
:1001F00094EA050F00F0A780A4F10104D5F1200EC8
:100200000DDB02FA0EFC22FA05F2801841F1000122
:1002100003FA0EF2801843FA05F359410EE0A5F1F6
:1002200020050EF1200E012A03FA0EFC28BF4CF027
:10023000020C43FA05F3C01851EBE37101F00045DD
:1002400007D54FF0000EDCF1000C7EEB00006EEBEA
:100250000101B1F5801F1BD3B1F5001F0CD3490874
:100260005FEA30004FEA3C0C04F101044FEA4452CB
:1002700012F5800F80F09A80BCF1004F08BF5FEA52
:10028000500C50F1000041EB045141EA050130BD32
:100290005FEA4C0C404141EB0101013C28BFB1F544
:1002A000801FE9D291F0000F04BF01460020B1FA8F
:1002B00081F308BF2033A3F10B03B3F120020CDA62
:1002C0000C3208DD02F1140CC2F10C0201FA0CF040
:1002D00021FA02F10CE002F11402D8BFC2F1200CA5
:1002E00001FA02F120FA0CFCDCBF41EA0C0190405B
:1002F000E41AA2BF01EB0451294330BD6FEA0404A4
:100300001F3C1CDA0C340EDC04F11404C4F120028E
:1003100020FA04F001FA02F340EA030021FA04F3A0
:1003200045EA030130BDC4F10C04C4F1200220FAF7
:1003300002F001FA04F340EA0300294630BD21FA35
:1003400004F0294630BD94F0000F83F4801306BFFB
:1003500081F480110134013D4EE77FEA645C18BFEF
:100360007FEA655C29D094EA050F08BF90EA020F86
:1003700005D054EA000C04BF1946104630BD91EA7E
:10038000030F1EBF0021002030BD5FEA545C05D181
:100390004000494128BF41F0004130BD14F58004C0
:1003A0003CBF01F5801130BD01F0004545F0FE4134
:1003B00041F470014FF0000030BD7FEA645C1ABF69
:1003C000194610467FEA655C1CBF0B46024650EAA0
:1003D000013406BF52EA033591EA030F41F40021CC
:1003E00030BD00BF90F0000F04BF0021704730B552
:1003F0004FF4806404F132044FF000054FF0000127
:1004000050E700BF90F0000F04BF0021704730B5E7
:100410004FF4806404F1320410F0004548BF4042BC
:100420004FF000013EE700BF42004FEAE2014FEA11
:1004300031014FEA02701FBF12F07F4393F07F4FEC
:1004400081F06051704732F07F4208BF704793F0EF
:100450007F4F04BF41F40021704730B54FF4607402
:1004600001F0004521F000411CE700BF50EA010205
:1004700008BF704730B54FF000050AE050EA0102AE
:1004800008BF704730B511F0004502D5404261EB1E
:1004900041014FF4806404F132045FEA915C3FF45F
:1004A000D8AE4FF003025FEADC0C18BF03325FEAFC
:1004B000DC0C18BF033202EBDC02C2F1200300FAAD
:1004C00003FC20FA02F001FA03FE40EA0E0021FAD2
:1004D00002F11444BDE600BF70B54FF0FF0C4CF4C0
:1004E000E06C1CEA11541DBF1CEA135594EA0C0F72
:1004F00095EA0C0F00F0DEF82C4481EA030621EAAD
:100500004C5123EA4C5350EA013518BF52EA0335E7
:1005100041F4801143F4801338D0A0FB02CE4FF099
:100520000005E1FB02E506F00042E0FB03E54FF0C9
:100530000006E1FB03569CF0000F18BF4EF0010EC1
:10054000A4F1FF04B6F5007F64F5407404D25FEABD
:100550004E0E6D4146EB060642EAC62141EA555170
:100560004FEAC52040EA5E504FEACE2EB4F1FD0CB2
:1005700088BFBCF5E06F1ED8BEF1004F08BF5FEA30
:10058000500E50F1000041EB045170BD06F00046E2
:1005900046EA010140EA020081EA0301B4EB5C048F
:1005A000C2BFD4EB0C0541EA045170BD41F4801187
:1005B0004FF0000E013C00F3AB8014F1360FDEBFAC
:1005C000002001F0004170BDC4F10004203C35DA88
:1005D0000C341BDC04F11404C4F1200500FA05F30B
:1005E00020FA04F001FA05F240EA020001F00042AC
:1005F00021F0004110EBD37021FA04F642EB060122
:100600005EEA430E08BF20EAD37070BDC4F10C044B
:10061000C4F1200500FA04F320FA05F001FA04F20F
:1006200040EA020001F0004110EBD37041F10001FB
:100630005EEA430E08BF20EAD37070BDC4F1200506
:1006400000FA05F24EEA020E20FA04F301FA05F26E
:1006500043EA020321FA04F001F0004121FA04F216
:1006600020EA020000EBD3705EEA430E08BF20EAE6
:10067000D37070BD94F0000F0FD101F00046400020
:1006800041EB010111F4801F08BF013CF7D041EAA2
:10069000060195F0000F18BF704703F000465200A6
:1006A00043EB030313F4801F08BF013DF7D043EA77
:1006B0000603704794EA0C0F0CEA135518BF95EA2D
:1006C0000C0F0CD050EA410618BF52EA4306D1D1B4
:1006D00081EA030101F000414FF0000070BD50EAD3
:1006E000410606BF1046194652EA430619D094EA5D
:1006F0000C0F02D150EA013613D195EA0C0F05D147
:1007000052EA03361CBF104619460AD181EA03019A
:1007100001F0004141F0FE4141F470014FF0000052
:1007200070BD41F0FE4141F4780170BD70B54FF0ED
:10073000FF0C4CF4E06C1CEA11541DBF1CEA13556D
:1007400094EA0C0F95EA0C0F00F0A7F8A4EB05044F
:1007500081EA030E52EA03354FEA013100F0888046
:100760004FEA03334FF0805545EA131343EA12630F
:100770004FEA022245EA111545EA10654FEA0026C4
:100780000EF000419D4208BF964244F1FD0404F57D
:10079000407402D25B084FEA3202B61A65EB0305D9
:1007A0005B084FEA32024FF480104FF4002CB6EB96
:1007B000020E75EB030E22BFB61A754640EA0C0016
:1007C0005B084FEA3202B6EB020E75EB030E22BF56
:1007D000B61A754640EA5C005B084FEA3202B6EB97
:1007E000020E75EB030E22BFB61A754640EA9C0056
:1007F0005B084FEA3202B6EB020E75EB030E22BF26
:10080000B61A754640EADC0055EA060E18D04FEAE3
:10081000051545EA16754FEA06164FEAC30343EA83
:1008200052734FEAC2025FEA1C1CC0D111F4801F50
:100830000BD141EA00014FF000004FF0004CB6E749
:1008400011F4801F04BF01430020B4F1FD0C88BFE8
:10085000BCF5E06F3FF6AFAEB5EB030C04BFB6EBF3
:10086000020C5FEA500C50F1000041EB045170BDE6
:100870000EF0004E4EEA113114EB5C04C2BFD4EB13
:100880000C0541EA045170BD41F480114FF0000E97
:10089000013C90E645EA060E8DE60CEA135594EA13
:1008A0000C0F08BF95EA0C0F3FF43BAF94EA0C0F16
:1008B0000AD150EA01347FF434AF95EA0C0F7FF48B
:1008C00025AF104619462CE795EA0C0F06D152EADF
:1008D00003353FF4FDAE1046194622E750EA4106C3
:1008E00018BF52EA43067FF4C5AE50EA41047FF4D4
:1008F0000DAF52EA43057FF4EBAE12E74FF0FF3C39
:1009000006E000BF4FF0010C02E000BF4FF0010C09
:100910004DF804CD4FEA410C7FEA6C5C4FEA430C82
:1009200018BF7FEA6C5C1BD001B050EA410C0CBFD1
:1009300052EA430C91EA030F02BF90EA020F002033
:10094000704710F1000F91EA030F58BF994208BF9A
:1009500090422CBFD8176FEAE37040F00100704757
:100960004FEA410C7FEA6C5C02D150EA013C07D1AE
:100970004FEA430C7FEA6C5CD6D152EA033CD3D0F9
:100980005DF8040B704700BF8446104662468C46F3
:100990001946634600E000BF01B5FFF7B7FF002826
:1009A00048BF10F1000F01BD4DF808EDFFF7F4FF4F
:1009B0000CBF012000205DF808FB00BF4DF808EDDA
:1009C000FFF7EAFF34BF012000205DF808FB00BFFD
:1009D0004DF808EDFFF7E0FF94BF012000205DF81F
:1009E00008FB00BF4DF808EDFFF7CEFF94BF0120D4
:1009F00000205DF808FB00BF4DF808EDFFF7C4FFCD
:100A000034BF012000205DF808FB00BF4FEA410C15
:100A10007FEA6C5C02D150EA013C0AD14FEA430CF8
:100A20007FEA6C5C02D152EA033C02D14FF0000035
:100A300070474FF0010070474FEA410212F5001273
:100A400015D211D56FF47873B3EB625212D94FEA15
:100A5000C12343F0004343EA505311F0004F23FAFF
:100A600002F018BF404270474FF00000704750EA54
:100A7000013005D111F0004008BF6FF00040704711
:100A80004FF00000704700BF01224FF400510148B1
:100A900002F026B9001001407FB500230A468DF808
:100AA00017304FF480310123CDE901310DF11701E9
:100AB00000910146054802F04DFC08B1FFF7E4FF44
:100AC0009DF8170007B05DF804FB00BF3C04002050
:100AD0002DE9F047232105463220FFF7DDFF2421D1
:100AE00006463220FFF7D8FF28213220FFF7D4FF37
:100AF000292147B23220FFF7CFFF2A214FFA80F990
:100B00003220FFF7C9FF2B2144B23220FFF7C4FF88
:100B10002C214FFA80FA3220FFF7BEFF2D214FFA29
:100B200080F83220FFF7B8FF720643B21AD509EBFE
:100B300007270AEB04243FB224B203EB082306F094
:100B4000300020281AB216D0302816D0102814BF32
:100B5000012302235F435C4353432F806C80AB80AF
:100B6000BDE8F08707EB092704EB0A243FB224B263
:100B700008EB0323E3E70423ECE70C23EAE7000098
:100B80007FB501238DF817204FF48032CDE9013273
:100B90000DF1170200920A460146044802F04AFB92
:100BA00008B1FFF771FF07B05DF804FB3C040020BB
:100BB00008B5C2B220213220FFF7E2FFBDE80840AD
:100BC000002223213220FFF7DBBF10B594B014229E
:100BD00000210CA804F0CEFF142200210DEB02002E
:100BE00004F0C8FF1022002101A804F0C3FF022472
:100BF0004FF480330122CDE91143CDE90A234FF4AC
:100C0000E0130AA80E92139303F074FB08B172B6B6
:100C1000FEE70F23CDE905344FF480630790CDE95B
:100C20000830214605A803F02DFD08B172B6FEE795
:100C3000122301934FF40043CDE9033001A803F0E0
:100C4000EBFD08B172B6FEE703F0F0FC14B010BD86
:100C500080B59A4D8EB001F07BFCFFF7B6FF1022F5
:100C600000210AA804F086FFAB69002243F01003BC
:100C7000AB61AB694FF4005103F010030693069B80
:100C8000AB698F4843F02003AB61AB69002403F0EC
:100C900020030793079BAB69012643F00403AB6174
:100CA000AB69022703F004030893089BAB6943F088
:100CB0000803AB61AB6903F008030993099B02F0D9
:100CC0000FF8002201217F4802F00AF8002240F6C6
:100CD000B8017D4802F004F84FF4005378480AA99F
:100CE000CDE90A36CDE90C4701F020FF1123754804
:100CF0000AA9CDE90B340A960D9701F017FF40F6CB
:100D0000B80371480AA9CDE90A36CDE90C4701F0CC
:100D10000DFF4FF460436C480AA9CDE90A340C94E6
:100D200001F004FF6B69224633436B616B69214616
:100D300033400E200593059B01F074FD0E2001F059
:100D4000A3FD224621460F2001F06CFD0F2001F08B
:100D50009BFD5E4D5E4B28462B604FF46023CDE932
:100D60000A440C94AC602C732C75EB616C602E61A2
:100D700001F0C8FC08B172B6FEE70C900AA928463B
:100D8000CDE90A6601F01AFC034608B172B6FEE727
:100D90004FF482724F48504EC0E90233C0E90062FE
:100DA000C0E904330822C0E9083383624FF40077B6
:100DB0000A23C0E90672C36203F00CFE034608B1C1
:100DC00072B6FEE74FF4E1324448454DC0E90233C4
:100DD000C0E900520C220361C0E90523C36103F09E
:100DE0006DFF034608B172B6FEE73E483E4C3F4AEF
:100DF000C0E90233C0E900424FF48042C0E9063343
:100E0000C0E90423036202F06DF9044608B172B62A
:100E1000FEE700F04FFC00F001F900F03FFA204639
:100E200000F02AFA4FF47A7001F0B6FB032000F0CC
:100E30003DFA41F29700FFF7BBFE2D4F2D4EDFF834
:100E4000B8802B48FFF744FE2C4DB7F90020B7F9C6
:100E50000230B7F904102A4C32802B8021804046A2
:100E60000091284905F0EEFA4FF6E0721F21CDE916
:100E700001210021244B08465A6800921B68424613
:100E800000F01EF91123214896F901200370552323
:100E90004370B6F900308270C37095F90120B5F93E
:100EA00000300271437194F90120B4F90030082137
:100EB0008271C37100F0C2FDC3E700BF00100240A1
:100EC0000010014000080140000C01408403002094
:100ED000002401409004002000300140E80400207C
:100EE000003801403C04002000540040A08601006E
:100EF0007C03002058050020300500205A05002002
:100F00005C05002094960008000000207403002077
:100F100072B6FEE707B500228DF8070020210748CA
:100F200001F0DEFE4FF0FF3301220DF1070104480E
:100F300003F0A8FD03B05DF804FB00BF000C014006
:100F40009004002070B504460D4601222021064879
:100F500001F0C6FE2146AAB24FF0FF33BDE8704053
:100F6000024803F08FBD00BF000C01409004002038
:100F7000F8B5054615F8016B06B9F8BD2C4614F80E
:100F8000020BFFF7C7FF6D7815F07F0704D02046EE
:100F90003946FFF7D7FF3C442B0607D514F8010B61
:100FA000FF2808BF4FF4FA7001F0F6FA013E25461B
:100FB000F6B2E1E7F7B5164605462A201F460C466D
:100FC000FFF7A8FF134A002311788DF804300D4471
:100FD00031448DF8071004210DEB01008DF8063027
:100FE0008DF80550FFF7AEFF2B20FFF793FF04218C
:100FF000094B0DEB01001A7814443A448DF8072090
:101000008DF80540FFF79EFF2C20FFF783FF03B00C
:10101000F0BD00BF0C0000205F050020F0B51025DA
:1010200087B02A46002102A804F0A4FD1F4B204CE3
:101030009A69204642F008029A619B69002203F0F7
:1010400008030193B8210126019B01F049FEB82352
:101050000027CDE902360223204602A9CDE9047318
:1010600001F064FD3A462946204601F039FE3A4631
:101070008021204601F034FE142001F08DFA324622
:101080008021204601F02CFE0A48FFF771FF0A4834
:10109000FFF76EFF0948FFF76BFF324629462046EF
:1010A00007B0BDE8F04001F01BBE00BF00100240D9
:1010B000000C0140A9960008E4960008F396000889
:1010C00082B02DE9F04F154689B0BDF85420BDF827
:1010D00058A0029204460F4600221021354813936F
:1010E0005FFA83F8C3F3072601F0FAFD4FEA1A23EB
:1010F0000593029B01951B0A0493019B13F8015B66
:10110000019345B9012210212A4809B0BDE8F04FEA
:1011100002B001F0E5BD284A04EB0803B2F9002053
:1011200093420BDB254B3744B3F90030BFB2BA19F9
:101130009A42E7DA202D4FF00004DED0203D7543BF
:10114000E0B2F9B2731E08F1FF32DDF850B00B4483
:101150000244DBB2D2B20BEB4505FFF72BFF4FF099
:10116000000B5E4502D84444A4B2C6E74FF0000924
:1011700035F8023B0393C14502D30BF1010BF0E7B5
:10118000039B07A803FA09F10B0449BF049B059BC5
:101190008DF81C30029B4FF002014EBF8DF81D30C0
:1011A0008DF81C308DF81DA009F10109FFF7CAFE6A
:1011B000E1E700BF000C01400A0000200800002009
:1011C0002DE9F3411C46284B1746B3F9002005468C
:1011D00090420E46BDF8208032DA244BB3F900303D
:1011E00099422DDA39188A42BCBF121A97B2A21955
:1011F0009342B8BF9B1B4FF000024FF010011C48F8
:10120000B8BF9CB201F06CFDF1B2E8B24B1E421EB9
:1012100023443A44DBB2D2B2FFF7CCFE4FEA1823A4
:101220000122202112488DF804308DF8058001F04C
:1012300057FD104EACB9012210210D4801F050FDB0
:1012400002B0BDE8F0814FF0FF330222304601A921
:1012500003F018FC013DADB2002DF4D1013CA4B265
:10126000E8E73D46F8E700BF0A000020080000203C
:10127000000C01409004002007B50021054B064AF0
:1012800000901B8808461288FFF79AFF03B05DF8AC
:1012900004FB00BF080000200A00002001220821F2
:1012A000014801F01DBD00BF000C014013B5234CE7
:1012B00000F00300002210212070214801F010FDF1
:1012C0003620FFF727FE2378032B17D8DFE803F03B
:1012D000021E3234C82301210DF107008DF80730BA
:1012E000FFF730FE5022174B1A80A022164B1A80AF
:1012F0001822164B1A700022154B1A700122102169
:101300000F4802B0BDE8104001F0EABCA82301215B
:101310000DF107008DF80730FFF714FEA022094BEE
:101320001A805022084B1A800022084B1A7018228B
:10133000074BE2E70823CEE76823E8E75E050020D5
:10134000000C01400A000020080000200C000020D2
:101350005F0500200E4B82B09A6942F001029A614B
:101360009A6902F001020092009ADA6942F0805212
:10137000DA61DB69074A03F080530193019B5368EC
:1013800023F0E06343F00073536002B0704700BF86
:10139000001002400000014010B5044686B0102243
:1013A000002102A804F0E6FB2268104B9A421BD1F0
:1013B00003F56C439A690E4842F400729A619A6987
:1013C00002A902F400720092009A9A6942F00402A3
:1013D0009A619B69022203F004030193019B03239A
:1013E000CDE9022301F0A2FB06B010BD00240140AC
:1013F0000008014010B5044686B01022002102A862
:1014000004F0B8FB2268154B9A4224D1144C4FF4D7
:101410004072A369134843F00803A361A36902A9BA
:1014200003F008030093009B1223CDE9022303235A
:10143000059301F07BFB0C4A536843F0E06343F0F3
:1014400002035360E36943F40013E361E36903F4C7
:1014500000130193019B06B010BD00BF0054004073
:1014600000100240000C01400000014010B504468D
:1014700086B01022002102A804F07CFB2268114BE8
:101480009A421DD103F560439A690F4842F4805295
:101490009A619A6902A902F480520092009A9A69AC
:1014A00042F004029A619B69A02203F004030193B5
:1014B000019B0223CDE902230323059301F036FBB0
:1014C00006B010BD003001400008014070B506466E
:1014D00086B01022002102A804F04CFB32682F4B8A
:1014E0009A4258D103F558439A694FF4007142F477
:1014F00080429A619A692A4802F480420092009AD6
:101500009A69002542F004029A619B69254C03F018
:1015100004030193019B0223CDE90213032302A9D3
:10152000059301F003FB4FF480631D4802A9CDE948
:101530000235049501F0FAFA1B4B2046C4E9003548
:101540008023C4E90555C4E90335A560E56101F0D0
:10155000BDF908B1FFF7DCFC1023144AF46366629E
:10156000134CC4E90023002380222046C4E9023240
:10157000C4E90433C4E9063301F0A8F908B1FFF760
:10158000C7FC002225201146B463666201F04AF9C7
:10159000252001F079F906B070BD00BF0038014088
:1015A00000080140B40300205800024044000240FB
:1015B000F803002008B503F023F9FEE7FEE7FEE795
:1015C000FEE7FEE770477047704700F0D3BF0000AA
:1015D000014801F017BA00BFF8030020014801F0EC
:1015E00011BA00BFB4030020014802F097B800BF51
:1015F000F80F0020014803F0F3BB00BFE80400200F
:101600000120704708B504F07DFA162303604FF0FF
:10161000FF3008BD08B504F075FA16230360FEE735
:1016200070B50D4614460E46731B9C4201DC2046E5
:1016300070BDAFF3008006F8010BF5E770B50D46FD
:1016400014460E46731B9C4201DC204670BD16F802
:10165000010BAFF30080F5E74FF0FF3070474FF418
:10166000005300204B6070470120704700207047F6
:101670000B4A0346116810B509B90A491160106890
:1016800009490A4C0344091B8B4206D904F03AFA73
:101690000C2303604FF0FF3010BD1360FCE700BF68
:1016A00060050020201700200050002000040000EA
:1016B0007047000008B500220E490F4800F0E8FA14
:1016C00008B1FFF725FC0D490B4800F0F6FA08B108
:1016D000FFF71EFC0A49084800F045F908B1FFF77A
:1016E00017FC054800F0F0FA18B1BDE80840FFF714
:1016F0000FBC08BD34010020640500201400002048
:1017000024010020D0F8BC3210B56BB1D0F8B8423B
:1017100094F80002FF2807D09B68214694F8012224
:101720009847FF2384F80032002010BD4323038034
:10173000004870474C000020432303800048704756
:10174000900000204323038000487047E000002001
:101750000A23038000487047D400002038B50446AF
:10176000D0F8B85200F089FAD4F8B832C5F80C02B3
:101770004BB1D4F8BC32D5F80402DB6805F503712F
:101780009847002038BD0220FCE7F8B5D0F8B862D1
:10179000D6B1142202FB0102D4698CB12827D0F8FB
:1017A000C03207FB0135AB6BB4FBF3F503FB15440B
:1017B00034B9D4612346224600F04DFA2046F8BDE4
:1017C0000020C6F81402FAE70220F8E72DE9F743F3
:1017D0004FF000080A78054612F060040E46D0F873
:1017E000B8728DF80580ADF8068028D0202C42D143
:1017F000CC884B78E4B1120611D5D0F8BC2239461A
:10180000D2F8089018462246C84739462846F2883A
:1018100000F014FE4446204603B0BDE8F0832246A3
:10182000394687F8003287F8014200F01CFEF1E7E4
:10183000D0F8BC22184695682246A847EBE74B78BB
:101840000A2B0CD00B2B12D0ABB990F89C32032B87
:1018500011D102220DF1060100F0F0FDDBE790F856
:101860009C32032B07D101220DF10501F4E790F81A
:101870009C32032BCFD03146284600F03FFD022496
:10188000C9E738B504460025812100F0AEF90121F1
:101890002046E56200F0A9F982212046C4F86C5187
:1018A00000F0A3F9D4F8B83225644BB1D4F8BC32B7
:1018B0005B689847D4F8B80200F0E8F9C4F8B85269
:1018C000002038BD2DE9F041037C0446BBBB4FF43A
:1018D000007302228121012500F07BF94FF400738F
:1018E000E562012729460222204600F072F908230A
:1018F00003228221C4F86C51204600F06AF94FF4AB
:101900000770276400F0BEF90546C4F8B80240B37A
:101910004FF00008D4F8BC321B689847C5F8148211
:10192000C5F81882267C9EB94FF4007339462046CC
:10193000D5F8042200F098F93046BDE8F081012581
:1019400040230222812100F044F94023E562C8E7E8
:10195000402339462046D5F8042200F085F9464652
:10196000EAE73E46E8E719B1C0F8BC12002070472C
:1019700002207047D0F8B8320020C3F80812C3F82C
:1019800010227047D0F8B8320020C3F80412704714
:10199000D0F8B82210B582B1D2F81442012374B93C
:1019A000C2F81432D2F8103281210363D2F808222F
:1019B0009BB200F050F9204610BD0220FCE718460B
:1019C000FAE7D0F8B82210B582B1047CD2F804222C
:1019D00034B94FF40073012100F046F9204610BDE0
:1019E0004023012100F040F90024F7E70224F5E745
:1019F000002070470020704710B5054C0146204676
:101A0000FFF7C0FF2046FFF7DCFF002010BD00BF3E
:101A10006405002010B5064C002220460549FFF75A
:101A2000A9FF20460449FFF7ADFF002010BD00BF0D
:101A300064050020100C00202808002010B5094C77
:101A40000A46D4F8B832D3F8143243B901462046D6
:101A5000FFF790FF2046BDE81040FFF799BF012037
:101A600010BD00BF6405002003289ABF014B185C1D
:101A7000022070473697000807B50E4B02689A425D
:101A800015D103F5DA33DA69142042F40002DA6181
:101A90000022DB69114603F400030193019B00F06F
:101AA000C1FE142003B05DF804EB00F0EDBE03B0FE
:101AB0005DF804FB005C004000F52C71D0F8EC02EE
:101AC00000F019B9282303FB0103D0F8EC02D3F886
:101AD0007C2100F03DB9282303FB0103D0F8EC0280
:101AE000DA6B00F06FB9D0F8EC0200F003BA83684B
:101AF00010B5022B044601D0FFF70AFAD4F8EC0225
:101B0000012100F0E1F9D4F8EC02BDE8104000F04A
:101B1000B4B9000010B50446D0F8EC0200F0D7F9D3
:101B2000A36923B1024A136943F00603136110BD90
:101B300000ED00E0D0F8EC0200F0D2B9082310B5B7
:101B40001D4A04461D48C0E9002302238360002388
:101B5000C0F8EC42C4F8C002C0E90633036201F0E9
:101B600037FD08B1FFF7D4F9002218231146D4F845
:101B7000C00202F0A6FB582300228021D4F8C00244
:101B800002F09FFBC02300228121D4F8C00202F0A2
:101B900098FB4FF4887300220121D4F8C00202F0B0
:101BA00090FB4FF4807300228221D4F8C00202F02F
:101BB00088FB002010BD00BF005C0040F80F002033
:101BC00008B5D0F8C00201F07BFDBDE80840FFF782
:101BD0004BBF10B51446D0F8C0021A46234602F097
:101BE0007BFABDE81040FFF73FBF08B5D0F8C00250
:101BF00002F0A1FABDE80840FFF736BF08B5D0F8FB
:101C0000C00202F0F9FABDE80840FFF72DBF08B5A1
:101C1000D0F8C00202F024FBBDE80840FFF724BF63
:101C2000282211F0800FD0F8C0321BBF01F07F01D5
:101C300001FB022102FB01315B1814BF987891F877
:101C40006A01704708B5D0F8C00201F052FDBDE846
:101C50000840FFF709BF08B5D0F8C00202F0B2FA99
:101C6000BDE80840FFF700BF08B5D0F8C00202F099
:101C70008AFABDE80840FFF7F7BED0F8C00202F0CC
:101C800099BA000000487047E8120020704770477A
:101C900008B580B1D0F8B43213B10023C0F8B43223
:101CA00009B1C0F8B0120123027080F89C32FFF72E
:101CB00045FF002008BD0220FCE719B1C0F8B412AE
:101CC000002070470220704708B5FFF779FF002019
:101CD00008BD08B5D0F8B4320BB9022008BD1B68A6
:101CE00098470028FAD0F8E708B5D0F8B4325B6816
:101CF0009847002008BD38B500F52A7504462846E7
:101D000000F0E8FA012394F8A812C4F89432B4F869
:101D1000AE32C4F8983201F01F03012B08D0022B19
:101D20000BD07BB92946204600F0FCF8002038BDD6
:101D30002946204600F020FAF8E72946204600F020
:101D40003FFAF3E7204601F08001FFF757FFEDE788
:101D5000F8B5044617460D4639BBD0F89432032B2C
:101D60001CD1D0E9586296420BD9B61AB242394614
:101D7000C0F860618CBFB2B292B200F081FB28461D
:101D8000F8BDD0F8B4321B6923B190F89C22032A25
:101D900000D19847204600F07BFBF0E7052BEED101
:101DA000C4F89412FFF72AFFE9E7D0F8B4329B6930
:101DB00033B190F89C22032A02D198470025DEE730
:101DC0000225DCE7F8B5044617460D46002947D141
:101DD000D0F89432022B3CD1D0E908639E4214D94A
:101DE000F31A394603629AB200F035FB2B462A46B5
:101DF00029462046FFF738FF94F8A032012B02D184
:101E0000002384F8A0322846F8BDC269B2FBF3F67D
:101E100003FB16265EB9934209D8D0F898329A424D
:101E200005D20A4600F017FBC4F89852DEE7D4F852
:101E3000B432DB682BB194F89C22032A01D12046EE
:101E4000984780212046FFF7D9FE204600F02BFB63
:101E5000D2E733F00403CFD18021FFF7CFFECBE7E9
:101E6000D0F8B4325B6933B190F89C22032A02D1D6
:101E700098470025C7E70225C5E7002270B504464C
:101E80000125402611464023FFF7A3FE334680215B
:101E900000222046C4F85851C4F86461FFF799FE47
:101EA0000021D4F8B832A561666284F89C52C4F867
:101EB00094126160C4F8A41223B1D4F8B43220465D
:101EC0005B689847002070BD01740020704790F84F
:101ED0009C3280F89D32042380F89C3200207047A9
:101EE00090F89C32042B04BF90F89D3280F89C320D
:101EF0000020704708B590F89C22032A04D1D0F83E
:101F0000B432DB6903B19847002008BD10B5044620
:101F10008021FFF773FE2046BDE810400021FFF747
:101F20006DBE000037B50B78044603F06003202B2C
:101F30000D4612D0402B10D0002B51D14B78092BDD
:101F40004ED8DFE813F0EE000A014D0003014D000A
:101F5000870013004D00D600A300D4F8B432294600
:101F600020469B689847002003B030BD0023ADF8A1
:101F700006304B881A0A013A062A31D8DFE802F007
:101F80000416233030485200D0F8B0321B68207C51
:101F90000DF106019847BDF80620002A56D0EB88BF
:101FA000002B4AD1204600F073FADCE7027CD0F81F
:101FB000B43232B99B6A0DF1060098470223437090
:101FC000E9E7DB6AF7E7DBB2052B09D8DFE803F0C6
:101FD000030C1014181CD0F8B0325B68002BD6D15B
:101FE0002046FFF793FFBEE7D0F8B0329B68F5E7D5
:101FF000D0F8B032DB68F1E7D0F8B0321B69EDE71A
:10200000D0F8B0325B69E9E7D0F8B0329B69E5E718
:10201000037C002BE4D1D0F8B4320DF106005B6BE9
:102020009847B8E7037C002BDAD1D0F8B4320DF131
:1020300006001B6B98470723C1E79A4228BF1A4640
:1020400001462046ADF8062000F0F8F9EB88002B99
:1020500089D1A7E78B88002BC2D1CB88002BBFD1B9
:102060004D887F2DBCD890F89C32032BB8D0E9B2B4
:1020700080F89E12FFF7E6FD204600F009FA1DB138
:10208000022384F89C326EE70123FAE78978394D00
:1020900001292970A4D890F89C32022B08D0032B78
:1020A00015D0FFF733FF20462978FFF71DFE5AE7CA
:1020B00000293FF477AF01210323416080F89C326F
:1020C0002046FFF706FE02287FF46CAF88E731B99F
:1020D0000223416080F89C32FFF706FE62E7416808
:1020E00001293FF45FAFC9B2FFF7FEFD29786160B7
:1020F000E6E7CA88012A7FF473AF90F89C32022B7E
:102100000AD8002B3FF46CAF0146002341F8083F8A
:10211000204600F093F926E7032B7FF461AF011D01
:10212000F6E790F89C32013B022B3FF659AFCB8883
:10213000022B7FF455AF0123C360D0F8A4320BB15A
:102140000323C360022204F10C01E1E74B88012B59
:102150007FF409AFC4F8A43224E790F89C32013B25
:10216000022B3FF63DAF4B88012B7FF4FCAE0023E2
:10217000F0E700BF0815002038B50B78044603F0DF
:102180006002402A0D4601D05B0615D494F89C32BB
:10219000013B022B10D82B79012B0DD8D4F8B43287
:1021A00029469B6820469847EB881BB910B9204602
:1021B00000F06EF9002038BD2046FFF7A7FEF9E7D2
:1021C00038B50A78044602F06002202A0B4627D070
:1021D000402A25D092BB5A788D88012A09793DD0B2
:1021E000032A25D052BB90F89C32022B4DD0032BF2
:1021F00024D1142201F00F0315F0800F02FB03031A
:1022000054D09B69D3B1142301F07F0505FB033340
:10221000C51811F07F0355D12B600222294641E0F9
:10222000D4F8B4221946204692689047002038BD61
:1022300090F89C22022A1FD0032A03D02046FFF7E1
:1022400065FEF3E75A882AB94A0603D0DB880BB942
:10225000FFF7D4FC204600F01BF9E7E790F89C223A
:10226000022A09D0032AE9D15B88002BDED14D0672
:10227000F0D0FFF7CCFCEDE74B06DFD0FFF7BEFC5C
:1022800080212046FFF7BAFCD0E74A06D6D12B06BC
:102290004FF000034FF002024CBF00F1140100F5B3
:1022A000AA710B60204600F0C9F8BFE7D3F8583197
:1022B000002BC3D0142301F07F0503FB050505F5B2
:1022C000AA75A6E72046FFF7ABFC08B10123A3E7F8
:1022D0002860A2E70B7803704B784370CA788B783C
:1022E00003EB022343804A790B7903EB02238380BB
:1022F000CA798B7903EB0223C380704710B504467B
:102300008021FFF77BFC2046BDE810400021FFF74D
:1023100075BC30B588B10024013823460134055D11
:10232000002DFAD1DBB201335B0013800B70032365
:102330004B70022310F8014F04B930BD5A1CCC5425
:10234000D2B20233DBB28D54F4E70000122301480D
:102350000B80704750010020042301480B80704718
:1023600064010020002370B51E464D1C040FB0F11F
:10237000204F34BF3034373401F8134005F8136070
:102380000133DCB2A2424FEA0010EFD870BD00006A
:102390001A2310B50B800A4BD3F8E807D3F8F027BF
:1023A00080180AD0D3F8EC4706490822FFF7DAFF75
:1023B000042220461031FFF7D5FF034810BD00BFAF
:1023C00000F0FF1F6A0100206801002010B5044CD6
:1023D0000A4604482146FFF79CFF204610BD00BF77
:1023E0000C1500203A97000810B5044C0A46044822
:1023F0002146FFF78EFF204610BD00BF0C150020C0
:102400004D97000810B5044C0A4604482146FFF7D2
:1024100080FF204610BD00BF0C1500206397000808
:1024200010B5044C0A4604482146FFF772FF2046C7
:1024300010BD00BF0C1500206E9700081346022245
:1024400010B5C0E90733C0F894220A460021FFF70F
:1024500002FC002010BD08B513460A460021FFF714
:10246000FAFB002008BD1346032210B5C0E957331C
:10247000C0F894220A460021FFF7F6FB002010BDA9
:1024800008B513460A460021FFF7EEFB002008BD01
:1024900008B50423C0F8943200231A461946FFF702
:1024A000DAFB002008BD08B50523C0F894320023EC
:1024B0001A461946FFF7D8FB002008BDFFF7F8F8C9
:1024C0000B480C490C4A002302E0D458C450043392
:1024D000C4188C42F9D3094A094C002301E0136067
:1024E0000432A242FBD303F013FBFEF7B1FB7047AB
:1024F0000000002058030020749B000858030020AF
:1025000020170020FEE7000038B50E4B054618786E
:102510004FF47A73B3FBF0F30B4A1068B0FBF3F09F
:1025200000F0C0F9044658B90F2D09D802462946D3
:102530004FF0FF3000F076F92046044B1D6038BDA7
:102540000120FCE78201002010000020840100200F
:10255000074A08B51368032043F01003136000F026
:102560004FF90F20FFF7D0FFFEF7F4FE002008BD63
:1025700000200240034A044B11681B780B4413608F
:10258000704700BF0C17002082010020014B186823
:10259000704700BF0C17002038B50446FFF7F6FF60
:1025A0000546631C1EBF044B1B78E418FFF7EEFFC3
:1025B000431BA342FAD338BD82010020002373B528
:1025C000019390F824300446012B6CD0012380F84D
:1025D00024304D680268062D086805EB850322D873
:1025E0001F26556B053B9E4025EA060500FA03F3BE
:1025F0002B43536309288B6800EB40054FF007011C
:1026000029D9D6681E3DA94026EA0101AB400B43FB
:10261000D360A0F11003012B25D90020002384F8FA
:10262000243002B070BD0C2D4FF01F0509D8166B79
:10263000233B9D4026EA050500FA03F32B43136371
:10264000D8E7D66A413B9D4026EA050500FA03F328
:102650002B43D362CEE71069A94020EA0101AB40C9
:102660000B431361D9E7114B9A4216D193681B02B1
:10267000D3D49368102843F400039360CDD10C4B5E
:102680000C4A1B68B3FBF2F30A2253430193019BEC
:10269000002BC2D0019B013BF8E7A36A012043F065
:1026A0002003A362BAE70220BBE700BF0024014079
:1026B0001000002040420F0038B5036804469A68B5
:1026C000D10701D4002038BD9A6822F001029A6037
:1026D000FFF75CFF054623689B68DB07F2D5FFF731
:1026E00055FF401B0228F6D923689B68DA07F2D50C
:1026F000A36A012043F01003A362E36A43F00103DD
:10270000E362E0E7F8B5044600286ED0836A23B997
:10271000C36280F82430FEF73FFE2046FFF7CCFF6F
:10272000A36A13F0100362D1002860D1A26AE569A0
:10273000616822F4885222F0020242F00202294328
:10274000A568A262227BB5F5807F41EA420137D0BD
:10275000012D14BF00274FF48077267D012E06D16E
:1027600082BBA269013A47EA423646F40067226812
:10277000B5F5807F566826F4694646EA0706566036
:1027800097681D4E06EA070646EA0106966001D0E4
:10279000012D02D12369013B1B05D56A25F4700583
:1027A0002B43D3629268154B1340994213D10023F7
:1027B000E362A36A23F0030343F00103A362F8BDBD
:1027C0002F46CAE7A26A42F02002A262E26A42F001
:1027D0000102E262CBE7A36A23F0120343F0100385
:1027E000A362E36A43F00103E3620120E7E7A36A1F
:1027F00043F01003A362F8E7FDF7E1FFFE0E1FFFB1
:1028000007490302CA6803F4E06322F4E062120499
:10281000120C134343F0BF6343F40033CB607047A3
:1028200000ED00E0164B30B5DC68C4F30224C4F1BF
:102830000703251D042B28BF0423062D4FF0FF3569
:1028400098BF002405FA03F388BF033C21EA030381
:10285000A34005FA04F422EA0402002843EA020332
:10286000ACBF00F16040074A4FEA0313DBB2ABBFD5
:1028700000F5614000F00F0080F80033135430BDC4
:1028800000ED00E014ED00E0002808DB0123420920
:1028900000F01F0003FA00F0014B43F822007047DC
:1028A00000E100E00138B0F1807F0BD24FF0E0236F
:1028B000F021054A586182F8231000200722986110
:1028C0001A6170470120704700ED00E010B548B371
:1028D00014220168144B0B44B3FBF2F39B00036416
:1028E000124BC363022380F82130D0E90134234323
:1028F000C4680A682343046922F47F52234344696D
:1029000022F03002234384692343C46923431343E1
:102910000B6001220023836380F8203080F821209F
:10292000184610BD0120FCE7F8FFFDBF0000024083
:1029300090F82130022B06D004238363002380F813
:102940002030012070470368C16B1A6822F00E0224
:102950001A601A6822F001021A600122036C02FA5E
:1029600003F34B60002380F8212080F820301846C4
:102970007047000010B590F82130022B03D00423DB
:102980008363012010BD03681A6822F00E021A60EA
:102990001A6822F001021A60184A93421FD01432BA
:1029A00093421ED0143293421DD0143293421DD054
:1029B000143293421DD0143293420CBF4FF4801353
:1029C0004FF080730E4A00245360012380F82130B9
:1029D000436B80F820407BB198472046D2E7012323
:1029E000F0E71023EEE74FF48073EBE74FF48053EA
:1029F000E8E74FF48033E5E71846C3E708000240F4
:102A00000000024070B40425C66B026C3468036891
:102A100095402542196832D04D0730D51A68960680
:102A20005EBF1A6822F004021A603E4A934219D02F
:102A30001432934218D01432934217D01432934276
:102A400017D01432934217D0143293420CBF4FF474
:102A500080034FF08063344A5360C36A002B5ED01A
:102A600070BC18470423F6E74023F4E74FF4806373
:102A7000F1E74FF48043EEE74FF48023EBE70225C4
:102A80009540254235D08D0733D51A68940606D473
:102A90001A6822F00A021A60012280F82120214AD5
:102AA000934219D01432934218D01432934217D063
:102AB0001432934217D01432934217D014329342F7
:102AC0000CBF4FF400134FF00073174A53600023FC
:102AD00080F82030836AC1E70223F6E72023F4E779
:102AE0004FF40073F1E74FF40053EEE74FF4003377
:102AF000EBE708259540254211D009070FD5196845
:102B000021F00E011960012303FA02F2726083635F
:102B100080F82130002380F82030036B9EE770BCE2
:102B2000704700BF08000240000002402DE9F74F47
:102B300000221646644F654BDFF894C1DFF894E13C
:102B40000D6835FA06F402D103B0BDE8F08F4FF0FE
:102B5000010808FA06F805EA080438EA05057BD1F9
:102B60004D68032D07D8013D022D00F28880DFE873
:102B700005F0969BA100122D00F099806ED8112DC2
:102B800000F08F80FF2C98BF82464FF00F0988BF5E
:102B900000F1040A4FEA8605DAF8008088BF203D7C
:102BA00009FA05FB28EA0B0802FA05F548EA0505CB
:102BB000CAF80050D1F804A01AF0805F4CD0BD696B
:102BC00026F0030845F00105BD61BD6908F18048A4
:102BD00005F00105019508F5803806F0030B019D0D
:102BE0004FEA8B0BD8F8085009FA0BF925EA0909C6
:102BF000394DA84262D005F58065A84260D005F540
:102C00008065A8425ED005F58065A8420CBF03250B
:102C1000042505FA0BF545EA0905C8F808509D6832
:102C20001AF4801F14BF2543A5439D60DD681AF484
:102C3000001F14BF2543A543DD605D681AF4003F03
:102C400014BF2543A5435D601D681AF4803F14BF7F
:102C50002C4325EA04041C60013671E7DFF87C9000
:102C60004D450CD017D8A9F580194D4507D009F569
:102C700070294D4503D0A9F580194D4582D18A6848
:102C8000D2B1012A08BFC0F810804FF0080218BF67
:102C9000C0F8148076E76545F1D07545EEE7CA685F
:102CA00070E7CA6804326DE7CA6808326AE7CA6822
:102CB0000C3267E7002265E7042263E70025A8E7F6
:102CC0000125A6E70225A4E7001002400004014008
:102CD00000003110000032100008014000002210F6
:102CE0000AB1016170470904FBE7016800224B69E2
:102CF00013F4806310D06FF480634B612023026370
:102D000080F83D3080F83E20036C80F83C2043F092
:102D10000403036401207047184670472DE9F84604
:102D200006460F4691461D464FEA114A3368BAF1EE
:102D3000010F0CBF5C699C6927EA0404A4B2B4FAD1
:102D400084F46409A14501D0002025E06A1CEED07E
:102D5000FFF71CFC089BC01AA84201D8002DE5D142
:102D60003368BAF1010F0CBF5B699B6927EA030363
:102D70009BB2B3FA83F35B099945D7D10023202294
:102D80000120336386F83D2086F83E30326C86F8A9
:102D90003C3042F020023264BDE8F8862DE9F04173
:102DA00004460F46164698462568686927EA0000DB
:102DB00080B2B8B16B695A0516D52B68202243F44E
:102DC00000732B606FF480636B610023236384F8CE
:102DD0003D2084F83E30226C42F00402012022643F
:102DE00084F83C30BDE8F081731CDED0FFF7CEFBE9
:102DF000A0EB0800B04201D8002ED5D123685A6953
:102E000027EA020292B2002ACED0002320222363B6
:102E100084F83D2084F83E30226C42F02002DDE749
:102E200070B504460D46164623685B691B0601D53E
:102E3000002070BD2046FFF758FFC8B96A1CF3D0C8
:102E4000FFF7A4FB801BA84201D8002DECD123681A
:102E50005B6913F08003E7D12022236384F83D20CF
:102E600084F83E30226C84F83C3042F02002226428
:102E70000120DEE72DE9F043154602689946136804
:102E800085B043F480731360DDE90C780E463B4651
:102E900000224FF00111CDF800800446FFF73EFFFD
:102EA000236838B11B68DB0502D54FF40073236437
:102EB00003200AE006F0FE061E613A46434620461D
:102EC0001749FFF76BFF18B1012005B0BDE8F0838B
:102ED000236803905A69394603929B6942460393DB
:102EE0002046039BFFF79CFF40B1236C042B01BFDE
:102EF0002268136843F400731360E5E7B9F1010F2A
:102F0000236802D1EDB21D61DFE72A0A1A61394652
:102F100042462046FFF784FF0028E6D12368F1E708
:102F2000020001002DE9FF479A46DDE90C780368AD
:102F300015461A680E4642F480621A601A684FF00D
:102F4000011142F480721A603B460022CDF80080E5
:102F50000446FFF7E3FE236848B11B68DB0502D592
:102F60004FF400732364032004B0BDE8F0875FFAD8
:102F700086F906F0FE061E613A4643462046294978
:102F8000FFF70CFF08B10120EEE7236803905A69B0
:102F9000394603929B69424603932046039BFFF701
:102FA0003FFF40B1236C042B01BF2268136843F438
:102FB00000731360E7E7BAF1010F23681AD1EDB28D
:102FC0004246394620461D61FFF72AFF0246002887
:102FD000E8D1216820460B6843F480730B603B46C0
:102FE0004FF00111CDF80080FFF798FE226860B124
:102FF0001368B3E72A0A1A61394642462046FFF7AA
:103000000FFF0028CED12368D9E749F001031361EF
:10301000204643463A460349FFF7C0FE003818BF32
:103020000120A1E70200010070B504460D461646D6
:1030300023685B695B0701D5002070BD2046FFF760
:1030400054FEC8B96A1CF3D0FFF7A0FA801BA8424F
:1030500001D8002DECD123685B6913F00403E7D19C
:103060002022236384F83D2084F83E30226C84F8CB
:103070003C3042F0200222640120DEE770B50446B5
:103080000D46164621684B6913F0400301D000201D
:1030900010E04A69D2060ED56FF010024A61202274
:1030A000236384F83D2084F83E30226C01202264A2
:1030B00084F83C3070BDFFF769FA801BA84201D844
:1030C000002DDFD123685B6913F04003DAD12022A1
:1030D000236384F83D2084F83E30226C42F02002C5
:1030E000E4E7000070B5044608B9012070BD90F80F
:1030F0003D3003F0FF021BB980F83C20FEF77AF95F
:10310000242384F83D3023681A6822F001021A60F3
:103110001A6842F400421A601A6822F400421A60E7
:1031200001F04CFB3F4A6368934294BF3E4A3F4ADA
:1031300090428CBF00220122002AD6D1394E3C4950
:10314000B342B0FBF1F188BF4FF49676226800F1EC
:10315000FF30556825F03F0545EA010582BF714300
:103160004FF47A76B1FBF6F15560156A013125F01E
:103170003F0529431162D1692A4D21F44F41AB42E9
:1031800021F0FF0132D85B00B0FBF3F0431C40F6A6
:10319000FC70034242D0C3F30B030B43D3611168AD
:1031A000D4E9073021F0C00103430B431360916859
:1031B000D4E9030321F40341034321F0FF010B434E
:1031C0009360D168D4E9053021F0FF0103430B433C
:1031D000D3601368002043F00103136020232064B0
:1031E00084F83D30206384F83E007FE7A56855B938
:1031F00003EB4303B0FBF3F30133C3F30B037BB1E6
:1032000043F40043C9E719256B43B0FBF3F30133E3
:10321000C3F30B0323B143F44043BEE70423BCE7ED
:103220000123BAE7A08601007F841E00FF083D004D
:1032300040420F002DE9F743044699460F46904659
:103240000C9EFFF7A3F994F83D300546202B03D0E0
:10325000022003B0BDE8F08300901923012220462C
:103260003A49FFF75BFD0028F2D194F83C30012B7E
:10327000EED00123206884F83C3003684246D90729
:1032800058BF036839465CBF43F00103036003681D
:1032900023F400630360212384F83D30402384F845
:1032A0003E30002323640A9B20466362BDF82C3025
:1032B000CDE900656385638D2385254BE3624B462D
:1032C000FFF7D8FD00282AD00120C2E7FFF7A8FDAC
:1032D00040B1236C042B01BF2268136843F40073D0
:1032E0001360F1E7636A27681A4612F8011B396117
:1032F0006262628D218D013A92B262857A69481EBE
:1033000080B2520720850AD548B15A7802333A6113
:103310006362638D0239013B9BB221856385238DF6
:103320002A4631462046002BD0D1FFF77DFE0028EB
:10333000CFD12268136843F400731360202384F80C
:103340003C0084F83D3084F83E0082E70200100023
:103350000000FFFF2DE9F04399460023044689B0A1
:1033600003930D469046129FFFF710F994F83D30F5
:103370000646202B04D00225284609B0BDE8F0837C
:1033800000901923012220468D49FFF7C7FC002831
:10339000F1D194F83C30012BEDD00123206884F862
:1033A0003C3003682946DB0758BF036842465CBFD0
:1033B00043F001030360036823F4006303602223E6
:1033C00084F83D30402384F83E3000232364109B72
:1033D00020466362BDF84430CDE900766385638D95
:1033E0002385784BE3624B46FFF79CFD054608B109
:1033F0000125C1E7228D2368C2B904905A6904925D
:103400009A690492049A1A6842F400721A60DFF80A
:10341000B881DFF8B891238D002B37D1202284F8B2
:103420003C3084F83D2084F83E30A5E7012A11D1D4
:103430001A6822F480621A6072B6236805905A698D
:1034400005929A690592059A1A6842F400721A6008
:1034500062B6DCE7022A1A680ED142F400621A60F2
:1034600072B6236806905A6906929A690692069A7D
:103470001A6822F48062EAE742F480621A600790D8
:103480005A6907929B690793079BC0E7032B78D87B
:10349000012B15D1324639462046FFF7EFFD0028B3
:1034A000A6D123681A69636A1A70636A013363627A
:1034B000238D013B2385638D013B9BB26385AAE786
:1034C000022B4FF000023B4641462046009618D1A1
:1034D000FFF724FC00288BD172B623681A6842F4E7
:1034E00000721A601A69636A1A70636A0133636250
:1034F000238D013B2385638D013B9BB2638562B6BF
:10350000CFE7FFF70BFC00287FF472AF2268136847
:1035100023F48063136072B646F2A81123681A6917
:10352000636A1A70626A531C6362238D013B2385B0
:10353000638D013B9BB26385D9F80030B3FBF1F397
:1035400023214B430393039B013B0393039B6BB9E1
:103550002022236384F83D2084F83E30226C42F020
:103560002002226462B684F83C3041E7236859693E
:103570004807E8D5196841F4007119601B69537058
:10358000B3E7324639462046FFF778FD00287FF43E
:103590002FAF23681A69636A1A70626A531C6362E8
:1035A000238D013B2385638D013B9BB2638523689B
:1035B000596949077FF52FAF1B69537075E700BF45
:1035C000020010000000FFFF0400010010000020B6
:1035D000F0B5044687B010B390F8A93203F0FF02AB
:1035E0001BB980F8A822FEF747FA032325466E464A
:1035F00084F8A93255F8100B01F054FD0FCD0FC619
:103600002B68271D3360264697E80E0056F8100BEE
:1036100001F038FD054620B1022384F8A9320125C6
:103620004BE00146206801F047FD29464FF0010EAE
:1036300028250A46D4F804C0C8B2844501F1010126
:103640001BD8002328251946D8B2844503F101036D
:103650001FD8EC4635460FCDACE80F002B68CCF8F0
:10366000003097E80E00206801F028FD0123054690
:10367000E0B1022284F8A922D1E705FB0043C3E9A7
:103680000E2283F829E083F8280083F82B201A649F
:10369000D2E705FB0042C2E95E1182F8691182F8A7
:1036A000680182F86B11C2F88011CDE784F824001C
:1036B000206884F8A93201F0B9FF284607B0F0BDB0
:1036C00038B590F8A8320446012B10D0012580F8B7
:1036D000A852006801F0DDFC29462046FEF7D7FA23
:1036E000206801F0A1FF002084F8A80238BD022064
:1036F000FCE710B590F8A8220446012A0BD001225D
:1037000080F8241080F8A822006801F087FF0020CC
:1037100084F8A80210BD0220FCE700002DE9F04F5C
:10372000044685B0006801F083FF10F4004500F006
:103730002884DFF82093DFF820832068B0F8443035
:103740001F0402D405B0BDE8F08FB0F84460B1B2F8
:1037500016F00F0640F0C68011F010012BD103883F
:103760009BB203EA090343F400430380B0F85030EE
:1037700094F828209BB203EBC20300EB4300B0F89F
:103780000434E26BC3F3090363641344E363204628
:10379000FEF7A1F994F82430002BCED0226C002A39
:1037A000CBD194F82430216843F08003A1F84C3049
:1037B00084F82420C1E70588ABB215F4006521D058
:1037C000B0F8503094F868219BB203EBC20300EBD1
:1037D0004303B3F80C34B4F86E21C3F30903C4F8FF
:1037E000843104F52C7102F071F9226820461388A7
:1037F00023F070031B051B0D43F080031380FEF7BD
:103800005BF99AE7190498D5038823F070031B0528
:103810001B0D43F080030380B0F8503094F868210A
:103820009BB203EBC20300EB4303B3F80C34C3F3C6
:103830000903C4F884318BB1D4F87C1171B1B4F8A8
:103840006E2102F043F9D4F87C31D4F88421294662
:1038500013442046C4F87C31FEF734F921680A8805
:1038600093B212053FF569AF03F44053B3F5405FDF
:103870003FF463AFB1F8503001F20C409BB2C25A32
:10388000D4F87851C2F309023E2DC2520CD9C25A63
:103890006E09EF0608BF06F1FF3692B242EA8622B1
:1038A00042EA080292B204E09DB9C25A92B242F4CE
:1038B0000042C2520B8823F4804323F070031B04A0
:1038C0001B0C83F4405343F4004343F080030B800C
:1038D00033E7C25A6E08ED0748BF013692B242EA9A
:1038E0008622DFE730F826301A049FB240F1F480D8
:1038F000282130F8263001FB064123F070031B0518
:103900001B0D43F0800320F8263091F8743100F548
:10391000806CB3B9B0F8503091F868219BB206338F
:1039200003EBC2033CF81350C5F30905002D00F06A
:10393000B7802B46B1F86E21D1F87C1102F0C6F8A1
:10394000AEE091F86B2191F86831022A40F0868050
:10395000B0F8505017F4804AD1F880214FEAC30BD9
:10396000ADB207F0400E3BD0AB440BF1020B3CF87C
:103970001B50C5F30905954213D90022C1F88021D7
:1039800030F8232022F4804222F070021204120C3C
:1039900082F4005242F4004242F0800220F82320D8
:1039A00004E0521BC1F88021002AE9D0BEF1000FCB
:1039B0000DD030F8232022F4E04222F070021204ED
:1039C000120C42F4004242F0C00220F82320002DE5
:1039D00066D0282101FB06412B46B1F87021ABE7E8
:1039E0005D4406353CF81550C5F30905954212D9DA
:1039F000C1F880A130F8232022F4804222F0700226
:103A00001204120C82F4005242F4004242F080028E
:103A100020F8232004E0521BC1F88021002AE9D0BD
:103A2000BEF1000F0DD130F8232022F4E04222F045
:103A300070021204120C42F4004242F0C00220F85C
:103A400023206DB3282101FB06412B46B1F87221DA
:103A500072E700BF0F8FFFFF0080FFFF30F82320C9
:103A600022F4E04222F070021204120C42F40042EE
:103A700042F0C00220F8232091F8683130F823206A
:103A800012F4804F4FEAC302B0F850309BB256D0C8
:103A9000023313443CF81350C5F30905002D9BD1A4
:103AA000282171436318D3F884212A44C3F8842160
:103AB000D3F87C212A44C3F87C21D3F880211AB1A1
:103AC000D3F878319D4243D2282303FB0643204696
:103AD00093F86811FDF7F6FF3B067FF52EAE4FF029
:103AE000280C20680CFB064530F826309BB203EA10
:103AF000090343F4004320F8263095F82B30012BBE
:103B000050D1002195F83430296493B317F0400761
:103B100095F8292095F8283031D002BBB0F8502014
:103B20001B0192B200F2044010441A5AC2F3090277
:103B30001A521A5A92B242F400421A5219E006334B
:103B400013443CF81350C5F30905002DA8D07CE7B9
:103B500001F5B4712068214401F080FDBCE7012A21
:103B600007D1B0F8502000F2044092B21B0110447B
:103B7000195295F828102046FDF7ADFFDDE532B962
:103B8000B0F850201B0192B200F20C40CCE7012AA1
:103B9000EFD1B0F8502000F20C4092B21B0110445B
:103BA0001F52E6E795F8281017F480722B6C4FEA45
:103BB000C10A00F5806E1CD1B0F85070BFB2BA4493
:103BC0000AF1020A3EF81A70C7F309079F4201D3AF
:103BD0002A64D0E7DB1B2B64EB6B06FB0CCC3B446D
:103BE000EB636B6C04EB0C013B446B6401F036FD42
:103BF000A3E5B0F8502017F0400C92B2524407F4FD
:103C0000804700F0DC8002323EF812204FF0280C92
:103C1000C2F309029A4228BF00230CFB064C38BFAE
:103C20009B1ACCF84030BFB2002B4DD195F829201B
:103C3000002A36D1B0F850600B01B2B200F204464F
:103C40001644F25AC2F30902F252F25A92B242F404
:103C50000042F252B0F8502000F20C4092B21044F0
:103C6000C25AC2F30902C252C25A92B242F400428C
:103C7000C2522046FDF72FFF002F00F0DC8095F8A0
:103C80002810226832F8213023F4E04323F0700337
:103C90001B041B0C43F4404343F0800322F8213003
:103CA000C9E0012AE5D1B0F850600A011FFA86FC8C
:103CB00000F204466644B352B0F8506000F20C4083
:103CC000B6B230448352D4E76FB130F8213023F4D8
:103CD000E04323F070031B041B0C43F4404343F008
:103CE000800320F82130282707FB064797F84C303F
:103CF000012B40F0A080FB6BD7F848E003EB020CEF
:103D00007B6CC7F83CC013447B64BB6B9E452CD3D3
:103D1000AEEB0302BA6495F829201FFA83FE002A4D
:103D200041D1B0F8502000F2044792B23A44090160
:103D3000575A3E2BC7F30907575223D9DF06575A64
:103D40004FEA531A08BF0AF1FF3ABFB247EA8A277F
:103D500047EA0807BFB257522821734601FB0646BF
:103D60006146328E01F06AFC65E0BEF1000F03D1BE
:103D7000134687F84CE0CEE7002387F84C30BB644D
:103D80007346C8E72BB9535A9BB243F400435352CE
:103D9000E2E75F08DB07535A48BF01379BB243EAAB
:103DA00087239BB2F3E7012AD6D1B0F8503009013E
:103DB0009AB200F20443134423F801E0CCE7063240
:103DC0003EF81220BFB2C2F309029A4288BF63468E
:103DD0004FF0280C0CFB064C98BF9B1ACCF84030D7
:103DE000002B4ED195F82920002A37D1B0F8506029
:103DF0000B01B2B200F204461644F25AC2F30902B1
:103E0000F252F25A92B242F40042F252B0F850200A
:103E100000F20C4092B21044C25AC2F30902C252DC
:103E2000C25A92B242F40042C2522046FDF753FEFB
:103E3000002F3FF424AF95F82810226832F8213083
:103E40009BB223F4E04323F0400383F0300343F4B8
:103E5000004343F0800322F821306EE4012AE4D1CC
:103E6000B0F850600A011FFA86FC00F2044666446E
:103E7000B352B0F8506000F20C40B6B230448352F6
:103E8000D3E76FB930F8213023F4E04323F0700317
:103E90001B041B0C43F4404343F0800320F8213003
:103EA0004FF0280C0CFB064C9CF84C30012BC2D177
:103EB000DCF84430DCF83C701344DCF848E0CCF823
:103EC0004430DCF8383017449E45CCF83C7026D39B
:103ED000AEEB0302CCF8482095F829201FFA83FCAA
:103EE000002A42D1B0F8502000F20C4E92B2724437
:103EF000090132F801E03E2BCEF3090E22F801E071
:103F00001BD94FEA531EDB06535A08BF0EF1FF3E82
:103F10009BB243EA8E2343EA08039BB212E0BEF150
:103F2000000F03D113468CF84CE0D5E70023CCF802
:103F300048308CF84C307346CEE75BB9535A9BB28D
:103F400043F400435352282101FB06466346394699
:103F5000728E07E74FEA530EDB07535A48BF0EF144
:103F6000010E9BB243EA8E23D7E7012AEBD1B0F8CA
:103F700050309AB200F20C4313440A0123F802C0F5
:103F8000E1E7460512D522682046B2F8443023F412
:103F900080631B041B0CA2F84430FDF7A8FD2946E2
:103FA000204605B0BDE8F04FFFF7A3BB41040AD59A
:103FB0002268B2F8443023F480431B041B0CA2F89F
:103FC0004430FFF7BFBB820405D52268B2F8443005
:103FD00023F40053F1E7C30419D522682046B2F850
:103FE000403023F004031B041B0CA2F84030B2F84D
:103FF000403023F008031B041B0CA2F84030FDF7EF
:1040000099FD2268B2F8443023F48053D5E70705C0
:1040100048D56846226806461146134602F1200537
:1040200033F8047B9D4226F8027BF9D1B2F8403088
:104030009BB243F00103A2F84030B2F8403023F0C5
:1040400001031B041B0CA2F84030B2F844305E059B
:10405000FBD5B2F8443023F480631B041B0CA2F898
:10406000443030F8023B21F8043B8D42F9D1B2F8DC
:10407000403020469BB243F00803A2F84030B2F82B
:10408000443023F400631B041B0CA2F84430B2F844
:1040900040309BB243F00403A2F84030FDF73AFDF4
:1040A000FFF750BB82050DD522682046B2F8443098
:1040B00023F400731B041B0CA2F84430FDF713FD1E
:1040C000FFF740BBC3057FF53DAB2268B2F8443033
:1040D00023F4807371E700BF11F0800F70B50546BF
:1040E0004FF0280401F007001AD0012600FB04411C
:1040F00029444E70022BCB7008BF0023087008BF04
:104100000B710A6195F8A832012B12D0012328689F
:1041100085F8A83200F0E6FF002085F8A80270BDFF
:104120000026444304F5B4712C44294484F86961A1
:10413000E0E70220F3E711F0800F10B54FF02803FD
:10414000044601F0070213D002FB033101440120B1
:1041500048700A7094F8A832012B12D0012320680D
:1041600084F8A83201F020F9002084F8A80210BDDC
:10417000534303F5B47101440344002083F86901FB
:10418000E7E70220F3E770B501F0070528210026D4
:104190006943441801F5B4710144C4E95F23C4F8CC
:1041A000846184F8696184F86851006801F056FA06
:1041B000304670BD282301F0070103FB0100D0F851
:1041C0008401704770B501F00705282101FB050443
:1041D0000026C4E90F23012205FB011184F84C20BD
:1041E0000144A364666484F8292084F82850006898
:1041F00001F034FA304670BD38B5436801F0070568
:104200009D42044628D811F0800F4FF028031AD0A1
:10421000012205FB033101444A7001230D708B70AC
:1042200094F8A8229A4219D0206884F8A83201F0A4
:104230008CF925B9206804F52C7101F0FDF90020F6
:1042400084F8A80238BD00224B4303F5B47103443F
:10425000014483F86921E0E70120F3E70220F1E758
:1042600038B5436801F00F029A42044625D811F090
:10427000800F4FF0280301F0070215D002FB033135
:1042800001440120487000250A708D7094F8A8320E
:10429000012B14D00123206884F8A83201F075F9AD
:1042A000284684F8A85238BD534303F5B47101443D
:1042B0000344002083F86901E5E70120F3E70220C9
:1042C000F1E710B5282411F0800F1BBF01F00701A2
:1042D00001FB044104FB0100401808BF00F5B47065
:1042E00099B21AB90273C180002010BD0122836007
:1042F0000273F9E72DE9F341054638B30368DB079C
:1043000010D42B689F075ED42B68190700F19580A5
:104310002B685A0700F1C180E869002840F02C8121
:10432000002029E0904C636803F00C03042B07D0B5
:10433000636803F00C03082B0AD16368DE0307D51A
:1043400023689C03DDD56B68002BDAD1012013E0D4
:104350006B68B3F5803F12D1236843F48033236048
:10436000FEF714F9064623689803CAD4FEF70EF93F
:10437000801B6428F7D9032002B0BDE8F0819BB907
:10438000236823F480332360236823F4802323608D
:10439000FEF7FCF8064623689903B2D5FEF7F6F857
:1043A000801B6428F7D9E6E7B3F5A02F236803D173
:1043B00043F480232360CFE723F480332360236812
:1043C00023F48023CBE7684C636813F00C0F07D00D
:1043D000636803F00C03082B10D16368DA030DD473
:1043E00023689B0702D52B69012BAFD123686A692B
:1043F00023F0F80343EAC203236085E72A695B4B95
:104400006AB101221A60FEF7C1F8064623689F07C9
:10441000ECD4FEF7BBF8801B0228F7D9ABE71A6093
:10442000FEF7B4F80646236898077FF56DAFFEF7F0
:10443000ADF8801B0228F6D99DE7AA694A4E4B4B7E
:10444000E2B10122C3F88024FEF7A0F80446736AA3
:104450009B070DD54FF4FA52454B1B68B3FBF2F3A3
:10446000019300BF019B5A1E0192002BF9D14FE727
:10447000FEF78CF8001B0228E9D97CE7C3F88024FA
:10448000FEF784F80446736A9F077FF541AFFEF795
:104490007DF8001B0228F6D96DE7334CE369D8009C
:1044A00024D40127E36943F08053E361E36903F017
:1044B00080530093009B2F4E3368D90518D5EB68C5
:1044C000012B26D1236A43F001032362FEF75EF835
:1044D00041F288380646236A9B073FD5002F3FF4F8
:1044E0001BAFE36923F08053E36115E70027E2E7A0
:1044F000336843F480733360FEF748F880463368CE
:10450000DA05DCD4FEF742F8A0EB08006428F6D9FF
:1045100031E7ABB9236A41F2883823F00103236203
:10452000236A23F004032362FEF730F80646236A69
:104530009807D3D5FEF72AF8801B4045F7D91AE72C
:10454000052B236A03D143F004032362BAE723F067
:1045500001032362236A23F00403B6E7FEF716F88B
:10456000801B4045B7D906E70010024000004242D8
:1045700010000020007000402A4C636803F00C0318
:10458000082B3ED00022284B02281A662CD1FDF7BA
:10459000FDFF06462368990120D42B6AB3F5803FBE
:1045A00005D16268A96822F400320A436260696A30
:1045B00062680B4322F474121343012263601A4BA6
:1045C0001A66FDF7E3FF054623689A013FF5A8AE9A
:1045D000FDF7DCFF401B0228F6D9CCE6FDF7D6FF3D
:1045E000801B0228D6D9C6E6FDF7D0FF0546236812
:1045F0009B017FF595AEFDF7C9FF401B0228F6D958
:10460000B9E601283FF4B8AE63682A6A03F4803142
:1046100091427FF49BAE6A6A03F4701393423FF4B5
:104620007FAE93E600100240000042420122014B9F
:10463000DA647047000042420D4A536803F00C01EF
:10464000082912D10B48C3F38341DB03405C09D531
:104650005368094AC3F340435043084AD35CB0FB54
:10466000F3F07047064B584370470348704700BF4C
:10467000001002407C97000800127A008C97000816
:1046800000093D002DE9F0410D46044610B9012016
:10469000BDE8F081444A136803F007038B4228D336
:1046A00021688E0730D4CA0743D43F4A136803F009
:1046B0000703AB4265D822683C4D12F0040F6CD161
:1046C000130706D56B68226923F4605343EAC203DB
:1046D0006B60FFF7B1FF6B68354AC3F30313D35C1C
:1046E000D840344B1860344B1868FDF70DFF00209C
:1046F000CEE7136823F007030B431360136803F03E
:1047000007038B42C3D1CBE7284B11F0040F1EBF28
:104710005A6842F4E0625A60080742BF5A6842F49D
:1047200060525A605A68A06822F0F00202435A6050
:10473000B9E762681D4E012A33681AD113F4003FAD
:10474000A5D0736841F2883823F0030313437360E4
:10475000FDF71CFF07467368626803F00C03B3EBB8
:10476000820FA2D0FDF712FFC01B4045F3D90320F2
:104770008EE7022A02D113F0007FE1E713F0020F67
:10478000DEE7136823F007032B431360136803F07D
:104790000703AB427FF47BAF8DE76B68E16823F4DE
:1047A000E0630B436B608BE7002002400010024087
:1047B0001E9700081000002084010020044B054AC9
:1047C0005B68C3F30223D35C034A1068D840704788
:1047D000001002402E97000810000020044B054AEC
:1047E0005B68C3F3C223D35C034A1068D8407047A8
:1047F000001002402E9700081000002070470000B3
:1048000010B5044CA3681B0603D5FFF7F7FF802300
:10481000A37210BD0010024003682DE9F341D907CF
:10482000054620D5364CE369DA0032D40126E36927
:1048300043F08053E361E36903F080530193019BEC
:10484000304F3B68DB0526D5236A13F4407336D11D
:10485000236A6A6823F44073134323621EB1E36939
:1048600023F08053E3612868830706D52449AB68A9
:104870004A6822F440421A434A6010F010001BD0EC
:104880001F4AE9685368002023F480030B435360F8
:1048900012E00026D4E73B6843F480733B60FDF7E9
:1048A00075FE80463B68D805CED4FDF76FFEA0EBC1
:1048B00008006428F6D9032002B0BDE8F0816A68D8
:1048C00002F440729A42C3D001200F4A236AC2F810
:1048D0004004002023F44071C2F840042162D9074B
:1048E000B6D5FDF753FE41F288380746236A9A078A
:1048F000AED4FDF74BFEC01B4045F7D9DBE700BF48
:104900000010024000700040000042422DE9F341D7
:104910001C4616460F460546FDF738FE3444241A59
:10492000FDF734FE8046234B1B68C3F3CB33634350
:104930002A680193936837EA030301D000202EE030
:10494000731CF7D0FDF722FEA0EB0800A04229D38C
:104950002B685A6822F0E0025A606A68B2F5827FDA
:104960000AD1AA68B2F5004F02D0B2F5806F03D128
:104970001A6822F040021A60AA6AB2F5005F07D1F5
:104980001A6822F400521A601A6842F400521A603F
:10499000012385F851300023032085F8503002B000
:1049A000BDE8F081019B002B019B08BF0024013B67
:1049B000BEE700BF1000002010B513460A46802154
:1049C0000446FFF7A3FF20B10320636D43F02003EB
:1049D000636510BD10B50446002851D0436A002B12
:1049E0004AD14268B2F5827F00D0C3610023A3623E
:1049F00094F8513003F0FF0223B9204684F8502088
:104A0000FCF734FD0223226884F851301368A06853
:104A100023F040031360636800F4044003F48273DE
:104A20000343E068A16900F400600343206900F0DB
:104A300002000343606900F00100034301F40070C9
:104A40000343E069090C00F038000343206A01F0D9
:104A5000040100F080000343A06A00F40050034307
:104A600013605160D369002023F40063D3610123F4
:104A7000606584F8513010BD0023C0E90433B5E708
:104A80000120F8E72DE9F7431E4690F85030044620
:104A9000012B0D46174600F0A680012380F8503008
:104AA000FDF774FD94F851308146012B5FFA83F8CD
:104AB00040F09680002D63D0002F61D0032384F84E
:104AC00051300023A2686365B2F5004FC4E910338A
:104AD000E786A363A387E38725632368A78607D1B7
:104AE0001A6822F040021A601A6842F480421A6082
:104AF0001A68616852065EBF1A6842F040021A6086
:104B0000E268B2F5006F45D109B1012F07D135F840
:104B1000022BDA602563E38E013B9BB2E386E38ED2
:104B20009BB2B3B94A4631462046FFF745FF0028FD
:104B300053D1A36833B901932368DA6801929B6863
:104B40000193019B636DDBB90122984684F85120E3
:104B500016E022689368980705D5236B33F8021B8B
:104B6000D1602363D7E7FDF711FDA0EB0900B04248
:104B70000DD3711CD3D001234FF0030884F85130BA
:104B8000002384F85030404603B0BDE8F083002E87
:104B9000C5D1F0E709B1012F08D12A781A73236B28
:104BA00001332363E38E013B9BB2E386E38E9BB22A
:104BB000002BB7D023689A68920702D5226B12782F
:104BC000ECE7FDF7E3FCA0EB0900B04202D3731C55
:104BD000ECD0D0E7002EE9D1CDE720236365A8E72C
:104BE0004FF00208CCE74FF00208CCE7026802F170
:104BF0000C0353E8003F23F490730C3242E8003179
:104C000002680029F2D102F1140353E8003F23F0B7
:104C1000010302F1140C4CE800310029F3D1036BBD
:104C2000012B0BD102F10C0353E8003F23F01003DA
:104C300002F10C0C4CE800310029F3D1202380F85C
:104C4000423000230363704710B504460368C1680F
:104C50001A6922F440520A431A6182680069D968CD
:104C60000243606921F4B05121F00C0102430A4370
:104C7000DA605A69A16922F440720A435A610E4A05
:104C8000934215D1FFF7AAFD1923434362682068B8
:104C90009200B3FBF2F36422B3FBF2F102FB113397
:104CA0001B013233B3FBF2F303EB0113836010BD3E
:104CB000FFF784FDE8E700BF0038014010B5044667
:104CC00048B390F8413003F0FF021BB980F8402050
:104CD000FCF7FCFB2423226884F84130D36820468B
:104CE00023F40053D360FFF7AFFF236800201A6955
:104CF00022F490421A615A6922F02A025A61DA6853
:104D000042F40052DA602023606484F8413084F871
:104D10004230606310BD0120FCE770477047704768
:104D200008B50023406AC385C384FFF7F8FF08BDB8
:104D3000704707B58168836AB1F5805F02683FD12B
:104D4000016900293FD15268C2F3080223F8022BFF
:104D50008362C38D013B9BB2C385002B2DD10268BA
:104D6000D16821F02001D160D16821F48071D16037
:104D7000516921F001015161202280F842204363F2
:104D8000026B012A026828D1036302F10C0353E885
:104D9000003F23F0100302F10C0C4CE80031002915
:104DA000F3D11368DB0605D50191136801935368AD
:104DB0000193019B818DFFF7BBFF03B05DF804FBFE
:104DC00039B9016929B95268D2B21A70836A0133BC
:104DD000BEE7526802F07F02F7E7FFF79FFFECE7BC
:104DE000036837B51A68044612F00F0FD9685D6979
:104DF0000CD1950670D58D066ED590F84230222BD9
:104E000064D103B0BDE83040FFF793BF05F0010067
:104E100001F4907505435FD0D50705D5CB0542BF9A
:104E2000636C43F001036364550704D518B1636CE8
:104E300043F002036364930704D518B1636C43F035
:104E400004036364150707D501F0200303431EBF65
:104E5000636C43F008036364636C002B36D09006E8
:104E600008D58A0606D594F84230222B02D1204676
:104E7000FFF75FFF236820465B69656C03F0400322
:104E800005F008051D4323D0FFF7B0FE22685369E3
:104E90005B0618D502F1140353E8003F23F04003EA
:104EA00002F1140040E800310029F3D1E06B50B169
:104EB000734B4363FDF75EFD40B1E06B436B03B0A2
:104EC000BDE8304018472046FFF729FF03B030BD4A
:104ED000FFF725FF6564F9E7206B012840F0948017
:104EE000D50640F19180C80640F18E8000220192E3
:104EF0001A6801925A680192019A5A6955064DD56D
:104F0000E16B0A68526892B2002ADFD0A08D90420D
:104F1000DCD9E2858A69202A36D003F10C0252E8F6
:104F2000002F22F4807203F10C0040E800210029D8
:104F3000F3D103F1140252E8002F22F0010203F131
:104F4000140040E800210029F3D103F1140252E8D3
:104F5000002F22F0400203F1140040E80021002954
:104F6000F3D1202284F84220216303F10C0252E89D
:104F7000002F22F0100203F10C0040E8002100296C
:104F8000F3D1E06BFDF7D4FC02236363E38DA18DC5
:104F9000C91A89B22046FFF7CBFE97E7E18D8AB2A6
:104FA000E18D89B2002991D0A18D891A89B2002999
:104FB0008CD003F10C0252E8002F22F4907203F11E
:104FC0000C0545E800200028F3D103F1140252E853
:104FD000002F22F0010203F1140545E8002000280B
:104FE000F3D1202284F84220206303F10C0252E81E
:104FF000002F22F0100203F10C0545E800200028E4
:10500000F3D102236363C5E7100628D50D0626D524
:1050100094F84120212A7FF459AFA168226AB1F5A2
:10502000805F17D12169A9B932F8021BC1F30801C9
:1050300059602262E28C013A92B2E284002A7FF443
:1050400045AFDA6822F08002DA60DA6842F04002A6
:10505000DA603BE7511C216212785A60EAE7500699
:105060007FF534AF4A067FF531AFDA68204622F08B
:105070004002DA60202384F84130FFF74EFE25E736
:10508000214D000884B001A880E80E0004B0002083
:10509000704703464FF43F420020A3F84400A3F8B2
:1050A00040207047B0F8403023F47C535B045B0C25
:1050B000A0F84030002070470020704784B010B541
:1050C000044603A880E80E0000200123A4F8403025
:1050D000A4F84000A4F84400A4F85000BDE8104033
:1050E00004B07047F0B50A78CE7830F82240034615
:1050F00024F4EC4424F070042404240C032E4CD833
:10510000DFE806F002484644304644F4007448F2B2
:1051100080073C4323F8224033F82240DFF87CC26A
:10512000A4B204EA0C0414433C4323F822400C7B51
:1051300003EB021E002C40F08B80CD884C786D086C
:105140006D0064B3B3F85040A4B27444A4F80054A2
:1051500033F822104F060AD533F82250ADB205EAD3
:105160000C0545F4004545F0C00523F8225033F8FE
:1051700022108B4C89B2012E01EA040101D081F08A
:10518000200141F4004141F08001BFE044F4C064DB
:105190000020BCE744F48064FAE70120B7E7B3F8E5
:1051A0005040A4B27444A4F80854B3F85040A4B2D8
:1051B0007444B4F80C54C5F30905A4F80C540D69F3
:1051C0003E2D2FD9B4F80C146E09ED0608BF06F178
:1051D000FF3689B241EA86216FEA41416FEA5141C7
:1051E00089B2A4F80C1433F822104F040DD533F80B
:1051F000221021F4E04121F070010904090C41F46E
:10520000404141F0800123F82210664CCAB9198848
:1052100089B2214081F4405141F4004141F08001C4
:105220001980F0BD15B9B4F80C14D5E7E907B4F846
:105230000C144FEA550648BF013689B241EA86216F
:10524000CEE733F8221089B2214081F4005198E76B
:10525000022E33F822505CD1ADB205EA0C0545F4BC
:10526000014545F0800523F82250B3F850400D89E0
:10527000A4B26D0874446D00A4F800544D89B3F8CD
:1052800050406D08A4B274446D00A4F808544978E5
:10529000002946D133F822104E040DD533F82210E0
:1052A00021F4E04121F070010904090C41F440416E
:1052B00041F0800123F8221033F822104D060DD55D
:1052C00033F8221021F4E04121F070010904090CA7
:1052D00041F4004141F0C00123F8221048F280045B
:1052E00033F8221021F4804121F070010904090CE7
:1052F00081F44051214323F8221033F8221021F485
:10530000E04121F040010904090C214323F8221057
:1053100087E725F4E24525F070052D042D0C3D436B
:10532000A1E733F822104C040DD533F8221021F4F4
:10533000E04121F070010904090C41F4404141F0C1
:10534000800123F8221033F8221049060DD533F8D6
:10535000221021F4E04121F070010904090C41F40C
:10536000004141F0C00123F8221033F822100C4C08
:1053700089B22140012E18BF81F0200141F4004183
:1053800041F0800123F8221033F8221021F48041EB
:1053900021F070010904090CF3E600BF8F8FFFFFB5
:1053A000BF8FFFFF8FBFFFFF4A780B78097BD9BB08
:1053B0000AB330F8232051060DD530F8232022F40B
:1053C000E04222F070021204120C42F4004242F059
:1053D000C00220F8232030F8232022F4E04222F0FB
:1053E00040021204120C42F4004242F0800220F803
:1053F00023200020704730F8232052040DD530F8C8
:10540000232022F4E04222F070021204120C42F433
:10541000404242F0800220F8232030F8232022F47A
:10542000804222F07002DCE7002A48D130F82320C5
:1054300051040DD530F8232022F4E04222F070020E
:105440001204120C42F4404242F0800220F8232061
:1054500030F8232052060DD530F8232022F4E04204
:1054600022F070021204120C42F4004242F0C00218
:1054700020F8232048F2800130F8232022F4E04273
:1054800022F070021204120C42F4004242F0C002F8
:1054900020F8232030F8232022F4804222F07002EA
:1054A0001204120C0A4320F8232030F8232022F49F
:1054B000E04222F040021204120C0A4397E730F84F
:1054C000232051040DD530F8232022F4E04222F0AD
:1054D00070021204120C42F4404242F0800220F8A2
:1054E000232030F8232052060DD530F8232022F453
:1054F000E04222F070021204120C42F4004242F028
:10550000C00220F8232048F2800130F8232022F442
:10551000E04222F070021204120C42F4404242F0C7
:10552000800220F8232030F8232022F4E04222F0E9
:1055300040021204120C0A4320F8232030F82320E2
:1055400022F4804222F07002B5E74B780A788BB1E2
:1055500030F8223023F4E04323F040031B041B0CFB
:1055600083F0100343F4004343F0800320F822301B
:105570000020704730F8223023F4804323F070037A
:105580001B041B0C83F48053ECE70B7B3BBB4B7879
:105590000A7833B330F822305B060DD530F822306C
:1055A00023F4E04323F070031B041B0C43F400437B
:1055B00043F0C00320F82230CB78012B0FD030F815
:1055C000223023F4E04323F040031B041B0C83F040
:1055D000200343F4004343F0800320F822300020EE
:1055E000704730F822305B040DD530F8223023F4B8
:1055F000E04323F070031B041B0C43F4404343F0CF
:10560000800320F8223030F8223023F4804323F046
:1056100070031B041B0C83F44053DAE711B9802399
:10562000A0F84C30002070470020704700207047E1
:10563000B0F8440080B270470020704700EB42028F
:10564000013302F580625B0802EB8303934200D1D1
:10565000704731F8020B22F8040BF7E72DE9F0410F
:105660000C46497805460129227B40F01E81D4F87A
:1056700010E0A6696169764528BF76460ABBB6B2D6
:10568000E2883346FFF7DAFFB5F85020217890B270
:1056900005F20442090102448E52227835F8223084
:1056A00023F4E04323F040031B041B0C83F030037E
:1056B000002043F4004343F0800325F82230BDE886
:1056C000F081E2782778022A236A4FEA071C40F02B
:1056D000D6809E4530F8272080F0BA8022F4E04240
:1056E00022F070021204120C42F4014242F08002D5
:1056F00020F8272030F82780B0F850209B1B18F0A6
:105700004008236297B2B3B252D000F20C423A443E
:1057100022F80C306289FFF791FF276A23696169DB
:105720009F428ABFBB1B0023374662783144236205
:105730006161BBB282BBB5F85000267882B205F237
:10574000044036011044325A3E2FC2F3090232524D
:1057500014D9FA06325A4FEA571C08BF0CF1FF3C25
:1057600092B242EA8C226FEA42426FEA524292B20D
:10577000325222892846FFF761FF8EE70FB9325A6D
:10578000F1E7325A4FEA570CFF0748BF0CF1010C02
:1057900092B242EA8C22EAE7012AEAD1B5F8502017
:1057A000207896B205F20442000132448352E0E7C9
:1057B00000F204423A4422F80C302289FFF73EFFFF
:1057C000276A236961699F428ABFBB1B43463746EC
:1057D0006278314423626161BBB26ABBB5F85000A4
:1057E000267882B205F20C4036011044325A3E2F20
:1057F000C2F30902325211D9FA06325A4FEA571C43
:1058000008BF0CF1FF3C92B242EA8C226FEA42429E
:105810006FEA524292B232526289ABE70FB9325A02
:10582000F4E7325A4FEA570CFF0748BF0CF1010C5E
:1058300092B242EA8C22EDE7012AEDD1B5F8502070
:10584000207896B205F20C42000132448352E3E71D
:1058500022F4E24222F070021204120C42F40042DE
:1058600042F0800220F82720B0F850209BB296B278
:1058700000F20442324422F80C3022897BE730F8EF
:1058800027209B1B12F0400FB0F850202362B3B2C8
:1058900096B206D000F20C42324422F80C306289F3
:1058A00069E700F204423244E5E7002A31D1A069F9
:1058B00023692178984284BFC21A1846A261B5F8BC
:1058C0005020090193B205F20C421A448B5A3E282B
:1058D000C3F309038B520DD98B5A4609C00608BF82
:1058E00006F1FF369BB243EA86236FEA43436FEA31
:1058F00053430BE008B9535AF7E7C3078B5A4FEAF3
:10590000500648BF01369BB243EA86239BB25352EE
:105910006AE0E378022B7CD100294BD1B0F850101B
:1059200020788BB205F2044100011944435AC3F3B5
:105930000903435223693E2B20D9425A5E09DF06F0
:1059400008BF06F1FF3692B242EA86226FEA42426F
:105950006FEA524292B24252B5F85010227805F2E4
:105960000C4089B212010144505A3E2BC0F3090089
:10597000505210D8002B43D1535A15E00BB9425A5C
:10598000E4E7DA07425A4FEA530648BF013692B2BB
:1059900042EA8622DEE75809DF06535A08BF00F1C3
:1059A000FF309BB243EA80236FEA43436FEA5343DD
:1059B0009BB25352E369BBB144F24003227835F8FD
:1059C000221003EA01008B4300D068B935F8223079
:1059D00023F4E04323F070031B041B0C43F4004347
:1059E00043F0C00325F82230227835F8223023F422
:1059F000804323F070031B041B0C83F4405357E6D1
:105A00005808DE07535A48BF01309BB243EA80234F
:105A1000CEE7012B58D1A3692269934294BF00209D
:105A2000981AA06188BF13460029DDD1B5F850103F
:105A300020788AB205F2044100011144425A3E2BFB
:105A4000C2F30902425229D9DA06425A4FEA5316E2
:105A500008BF06F1FF3692B242EA86226FEA42425E
:105A60006FEA524292B24252B5F85010227805F2D3
:105A70000C4089B212010144505A3E2BC0F3090078
:105A8000505217D8002B3FF436AF5808DB07535A53
:105A900048BF01309BB243EA802337E70BB9425A33
:105AA000DCE7425A5E08DF0748BF013692B242EA9D
:105AB0008622D7E75809DE06535A08BF00F1FF30A7
:105AC0009BB243EA802310E70120F8E500EB420295
:105AD000F0B502F580625D080C4617462E4602348A
